{
  "_format": "hh-sol-artifact-1",
  "contractName": "Users",
  "sourceName": "contracts/User.sol",
  "abi": [
    {
      "inputs": [
        {
          "internalType": "string",
          "name": "baseURI",
          "type": "string"
        },
        {
          "internalType": "address",
          "name": "whitelistContract",
          "type": "address"
        }
      ],
      "stateMutability": "nonpayable",
      "type": "constructor"
    },
    {
      "inputs": [],
      "name": "ERC721EnumerableForbiddenBatchMint",
      "type": "error"
    },
    {
      "inputs": [
        {
          "internalType": "address",
          "name": "sender",
          "type": "address"
        },
        {
          "internalType": "uint256",
          "name": "tokenId",
          "type": "uint256"
        },
        {
          "internalType": "address",
          "name": "owner",
          "type": "address"
        }
      ],
      "name": "ERC721IncorrectOwner",
      "type": "error"
    },
    {
      "inputs": [
        {
          "internalType": "address",
          "name": "operator",
          "type": "address"
        },
        {
          "internalType": "uint256",
          "name": "tokenId",
          "type": "uint256"
        }
      ],
      "name": "ERC721InsufficientApproval",
      "type": "error"
    },
    {
      "inputs": [
        {
          "internalType": "address",
          "name": "approver",
          "type": "address"
        }
      ],
      "name": "ERC721InvalidApprover",
      "type": "error"
    },
    {
      "inputs": [
        {
          "internalType": "address",
          "name": "operator",
          "type": "address"
        }
      ],
      "name": "ERC721InvalidOperator",
      "type": "error"
    },
    {
      "inputs": [
        {
          "internalType": "address",
          "name": "owner",
          "type": "address"
        }
      ],
      "name": "ERC721InvalidOwner",
      "type": "error"
    },
    {
      "inputs": [
        {
          "internalType": "address",
          "name": "receiver",
          "type": "address"
        }
      ],
      "name": "ERC721InvalidReceiver",
      "type": "error"
    },
    {
      "inputs": [
        {
          "internalType": "address",
          "name": "sender",
          "type": "address"
        }
      ],
      "name": "ERC721InvalidSender",
      "type": "error"
    },
    {
      "inputs": [
        {
          "internalType": "uint256",
          "name": "tokenId",
          "type": "uint256"
        }
      ],
      "name": "ERC721NonexistentToken",
      "type": "error"
    },
    {
      "inputs": [
        {
          "internalType": "address",
          "name": "owner",
          "type": "address"
        },
        {
          "internalType": "uint256",
          "name": "index",
          "type": "uint256"
        }
      ],
      "name": "ERC721OutOfBoundsIndex",
      "type": "error"
    },
    {
      "inputs": [
        {
          "internalType": "address",
          "name": "owner",
          "type": "address"
        }
      ],
      "name": "OwnableInvalidOwner",
      "type": "error"
    },
    {
      "inputs": [
        {
          "internalType": "address",
          "name": "account",
          "type": "address"
        }
      ],
      "name": "OwnableUnauthorizedAccount",
      "type": "error"
    },
    {
      "anonymous": false,
      "inputs": [
        {
          "indexed": true,
          "internalType": "address",
          "name": "owner",
          "type": "address"
        },
        {
          "indexed": true,
          "internalType": "address",
          "name": "approved",
          "type": "address"
        },
        {
          "indexed": true,
          "internalType": "uint256",
          "name": "tokenId",
          "type": "uint256"
        }
      ],
      "name": "Approval",
      "type": "event"
    },
    {
      "anonymous": false,
      "inputs": [
        {
          "indexed": true,
          "internalType": "address",
          "name": "owner",
          "type": "address"
        },
        {
          "indexed": true,
          "internalType": "address",
          "name": "operator",
          "type": "address"
        },
        {
          "indexed": false,
          "internalType": "bool",
          "name": "approved",
          "type": "bool"
        }
      ],
      "name": "ApprovalForAll",
      "type": "event"
    },
    {
      "anonymous": false,
      "inputs": [
        {
          "indexed": true,
          "internalType": "address",
          "name": "previousOwner",
          "type": "address"
        },
        {
          "indexed": true,
          "internalType": "address",
          "name": "newOwner",
          "type": "address"
        }
      ],
      "name": "OwnershipTransferred",
      "type": "event"
    },
    {
      "anonymous": false,
      "inputs": [
        {
          "indexed": true,
          "internalType": "address",
          "name": "from",
          "type": "address"
        },
        {
          "indexed": true,
          "internalType": "address",
          "name": "to",
          "type": "address"
        },
        {
          "indexed": true,
          "internalType": "uint256",
          "name": "tokenId",
          "type": "uint256"
        }
      ],
      "name": "Transfer",
      "type": "event"
    },
    {
      "stateMutability": "payable",
      "type": "fallback"
    },
    {
      "inputs": [],
      "name": "_price",
      "outputs": [
        {
          "internalType": "uint256",
          "name": "",
          "type": "uint256"
        }
      ],
      "stateMutability": "view",
      "type": "function"
    },
    {
      "inputs": [
        {
          "internalType": "address",
          "name": "to",
          "type": "address"
        },
        {
          "internalType": "uint256",
          "name": "tokenId",
          "type": "uint256"
        }
      ],
      "name": "approve",
      "outputs": [],
      "stateMutability": "nonpayable",
      "type": "function"
    },
    {
      "inputs": [
        {
          "internalType": "address",
          "name": "owner",
          "type": "address"
        }
      ],
      "name": "balanceOf",
      "outputs": [
        {
          "internalType": "uint256",
          "name": "",
          "type": "uint256"
        }
      ],
      "stateMutability": "view",
      "type": "function"
    },
    {
      "inputs": [
        {
          "internalType": "uint256",
          "name": "tokenId",
          "type": "uint256"
        }
      ],
      "name": "getApproved",
      "outputs": [
        {
          "internalType": "address",
          "name": "",
          "type": "address"
        }
      ],
      "stateMutability": "view",
      "type": "function"
    },
    {
      "inputs": [
        {
          "internalType": "address",
          "name": "owner",
          "type": "address"
        },
        {
          "internalType": "address",
          "name": "operator",
          "type": "address"
        }
      ],
      "name": "isApprovedForAll",
      "outputs": [
        {
          "internalType": "bool",
          "name": "",
          "type": "bool"
        }
      ],
      "stateMutability": "view",
      "type": "function"
    },
    {
      "inputs": [],
      "name": "maxTokenId",
      "outputs": [
        {
          "internalType": "uint256",
          "name": "",
          "type": "uint256"
        }
      ],
      "stateMutability": "view",
      "type": "function"
    },
    {
      "inputs": [],
      "name": "mint",
      "outputs": [],
      "stateMutability": "payable",
      "type": "function"
    },
    {
      "inputs": [],
      "name": "name",
      "outputs": [
        {
          "internalType": "string",
          "name": "",
          "type": "string"
        }
      ],
      "stateMutability": "view",
      "type": "function"
    },
    {
      "inputs": [],
      "name": "owner",
      "outputs": [
        {
          "internalType": "address",
          "name": "",
          "type": "address"
        }
      ],
      "stateMutability": "view",
      "type": "function"
    },
    {
      "inputs": [
        {
          "internalType": "uint256",
          "name": "tokenId",
          "type": "uint256"
        }
      ],
      "name": "ownerOf",
      "outputs": [
        {
          "internalType": "address",
          "name": "",
          "type": "address"
        }
      ],
      "stateMutability": "view",
      "type": "function"
    },
    {
      "inputs": [
        {
          "internalType": "bool",
          "name": "value",
          "type": "bool"
        }
      ],
      "name": "pause",
      "outputs": [],
      "stateMutability": "nonpayable",
      "type": "function"
    },
    {
      "inputs": [],
      "name": "paused",
      "outputs": [
        {
          "internalType": "bool",
          "name": "",
          "type": "bool"
        }
      ],
      "stateMutability": "view",
      "type": "function"
    },
    {
      "inputs": [],
      "name": "presaleEnded",
      "outputs": [
        {
          "internalType": "uint256",
          "name": "",
          "type": "uint256"
        }
      ],
      "stateMutability": "view",
      "type": "function"
    },
    {
      "inputs": [],
      "name": "presaleMint",
      "outputs": [],
      "stateMutability": "payable",
      "type": "function"
    },
    {
      "inputs": [],
      "name": "presaleStarted",
      "outputs": [
        {
          "internalType": "bool",
          "name": "",
          "type": "bool"
        }
      ],
      "stateMutability": "view",
      "type": "function"
    },
    {
      "inputs": [],
      "name": "renounceOwnership",
      "outputs": [],
      "stateMutability": "nonpayable",
      "type": "function"
    },
    {
      "inputs": [
        {
          "internalType": "address",
          "name": "from",
          "type": "address"
        },
        {
          "internalType": "address",
          "name": "to",
          "type": "address"
        },
        {
          "internalType": "uint256",
          "name": "tokenId",
          "type": "uint256"
        }
      ],
      "name": "safeTransferFrom",
      "outputs": [],
      "stateMutability": "nonpayable",
      "type": "function"
    },
    {
      "inputs": [
        {
          "internalType": "address",
          "name": "from",
          "type": "address"
        },
        {
          "internalType": "address",
          "name": "to",
          "type": "address"
        },
        {
          "internalType": "uint256",
          "name": "tokenId",
          "type": "uint256"
        },
        {
          "internalType": "bytes",
          "name": "data",
          "type": "bytes"
        }
      ],
      "name": "safeTransferFrom",
      "outputs": [],
      "stateMutability": "nonpayable",
      "type": "function"
    },
    {
      "inputs": [
        {
          "internalType": "address",
          "name": "operator",
          "type": "address"
        },
        {
          "internalType": "bool",
          "name": "approved",
          "type": "bool"
        }
      ],
      "name": "setApprovalForAll",
      "outputs": [],
      "stateMutability": "nonpayable",
      "type": "function"
    },
    {
      "inputs": [],
      "name": "startPresale",
      "outputs": [],
      "stateMutability": "nonpayable",
      "type": "function"
    },
    {
      "inputs": [
        {
          "internalType": "bytes4",
          "name": "interfaceId",
          "type": "bytes4"
        }
      ],
      "name": "supportsInterface",
      "outputs": [
        {
          "internalType": "bool",
          "name": "",
          "type": "bool"
        }
      ],
      "stateMutability": "view",
      "type": "function"
    },
    {
      "inputs": [],
      "name": "symbol",
      "outputs": [
        {
          "internalType": "string",
          "name": "",
          "type": "string"
        }
      ],
      "stateMutability": "view",
      "type": "function"
    },
    {
      "inputs": [
        {
          "internalType": "uint256",
          "name": "index",
          "type": "uint256"
        }
      ],
      "name": "tokenByIndex",
      "outputs": [
        {
          "internalType": "uint256",
          "name": "",
          "type": "uint256"
        }
      ],
      "stateMutability": "view",
      "type": "function"
    },
    {
      "inputs": [],
      "name": "tokenIds",
      "outputs": [
        {
          "internalType": "uint256",
          "name": "",
          "type": "uint256"
        }
      ],
      "stateMutability": "view",
      "type": "function"
    },
    {
      "inputs": [
        {
          "internalType": "address",
          "name": "owner",
          "type": "address"
        },
        {
          "internalType": "uint256",
          "name": "index",
          "type": "uint256"
        }
      ],
      "name": "tokenOfOwnerByIndex",
      "outputs": [
        {
          "internalType": "uint256",
          "name": "",
          "type": "uint256"
        }
      ],
      "stateMutability": "view",
      "type": "function"
    },
    {
      "inputs": [
        {
          "internalType": "uint256",
          "name": "tokenId",
          "type": "uint256"
        }
      ],
      "name": "tokenURI",
      "outputs": [
        {
          "internalType": "string",
          "name": "",
          "type": "string"
        }
      ],
      "stateMutability": "view",
      "type": "function"
    },
    {
      "inputs": [],
      "name": "totalSupply",
      "outputs": [
        {
          "internalType": "uint256",
          "name": "",
          "type": "uint256"
        }
      ],
      "stateMutability": "view",
      "type": "function"
    },
    {
      "inputs": [
        {
          "internalType": "address",
          "name": "from",
          "type": "address"
        },
        {
          "internalType": "address",
          "name": "to",
          "type": "address"
        },
        {
          "internalType": "uint256",
          "name": "tokenId",
          "type": "uint256"
        }
      ],
      "name": "transferFrom",
      "outputs": [],
      "stateMutability": "nonpayable",
      "type": "function"
    },
    {
      "inputs": [
        {
          "internalType": "address",
          "name": "newOwner",
          "type": "address"
        }
      ],
      "name": "transferOwnership",
      "outputs": [],
      "stateMutability": "nonpayable",
      "type": "function"
    },
    {
      "inputs": [],
      "name": "withdraw",
      "outputs": [],
      "stateMutability": "nonpayable",
      "type": "function"
    },
    {
      "stateMutability": "payable",
      "type": "receive"
    }
  ],
  "bytecode": "0x6080604052662386f26fc10000600c556014600e553480156200002157600080fd5b506040516200375d3803806200375d83398181016040528101906200004791906200047a565b336040518060400160405280600b81526020017f43727970746f20446576730000000000000000000000000000000000000000008152506040518060400160405280600281526020017f43440000000000000000000000000000000000000000000000000000000000008152508160009081620000c591906200072b565b508060019081620000d791906200072b565b505050600073ffffffffffffffffffffffffffffffffffffffff168173ffffffffffffffffffffffffffffffffffffffff16036200014f5760006040517f1e4fbdf700000000000000000000000000000000000000000000000000000000815260040162000146919062000823565b60405180910390fd5b6200016081620001bc60201b60201c565b5081600b90816200017291906200072b565b5080601060006101000a81548173ffffffffffffffffffffffffffffffffffffffff021916908373ffffffffffffffffffffffffffffffffffffffff160217905550505062000840565b6000600a60009054906101000a900473ffffffffffffffffffffffffffffffffffffffff16905081600a60006101000a81548173ffffffffffffffffffffffffffffffffffffffff021916908373ffffffffffffffffffffffffffffffffffffffff1602179055508173ffffffffffffffffffffffffffffffffffffffff168173ffffffffffffffffffffffffffffffffffffffff167f8be0079c531659141344cd1fd0a4f28419497f9722a3daafe3b4186f6b6457e060405160405180910390a35050565b6000604051905090565b600080fd5b600080fd5b600080fd5b600080fd5b6000601f19601f8301169050919050565b7f4e487b7100000000000000000000000000000000000000000000000000000000600052604160045260246000fd5b620002eb82620002a0565b810181811067ffffffffffffffff821117156200030d576200030c620002b1565b5b80604052505050565b60006200032262000282565b9050620003308282620002e0565b919050565b600067ffffffffffffffff821115620003535762000352620002b1565b5b6200035e82620002a0565b9050602081019050919050565b60005b838110156200038b5780820151818401526020810190506200036e565b60008484015250505050565b6000620003ae620003a88462000335565b62000316565b905082815260208101848484011115620003cd57620003cc6200029b565b5b620003da8482856200036b565b509392505050565b600082601f830112620003fa57620003f962000296565b5b81516200040c84826020860162000397565b91505092915050565b600073ffffffffffffffffffffffffffffffffffffffff82169050919050565b6000620004428262000415565b9050919050565b620004548162000435565b81146200046057600080fd5b50565b600081519050620004748162000449565b92915050565b600080604083850312156200049457620004936200028c565b5b600083015167ffffffffffffffff811115620004b557620004b462000291565b5b620004c385828601620003e2565b9250506020620004d68582860162000463565b9150509250929050565b600081519050919050565b7f4e487b7100000000000000000000000000000000000000000000000000000000600052602260045260246000fd5b600060028204905060018216806200053357607f821691505b602082108103620005495762000548620004eb565b5b50919050565b60008190508160005260206000209050919050565b60006020601f8301049050919050565b600082821b905092915050565b600060088302620005b37fffffffffffffffffffffffffffffffffffffffffffffffffffffffffffffffff8262000574565b620005bf868362000574565b95508019841693508086168417925050509392505050565b6000819050919050565b6000819050919050565b60006200060c620006066200060084620005d7565b620005e1565b620005d7565b9050919050565b6000819050919050565b6200062883620005eb565b62000640620006378262000613565b84845462000581565b825550505050565b600090565b6200065762000648565b620006648184846200061d565b505050565b5b818110156200068c57620006806000826200064d565b6001810190506200066a565b5050565b601f821115620006db57620006a5816200054f565b620006b08462000564565b81016020851015620006c0578190505b620006d8620006cf8562000564565b83018262000669565b50505b505050565b600082821c905092915050565b60006200070060001984600802620006e0565b1980831691505092915050565b60006200071b8383620006ed565b9150826002028217905092915050565b6200073682620004e0565b67ffffffffffffffff811115620007525762000751620002b1565b5b6200075e82546200051a565b6200076b82828562000690565b600060209050601f831160018114620007a357600084156200078e578287015190505b6200079a85826200070d565b8655506200080a565b601f198416620007b3866200054f565b60005b82811015620007dd57848901518255600182019150602085019450602081019050620007b6565b86831015620007fd5784890151620007f9601f891682620006ed565b8355505b6001600288020188555050505b505050505050565b6200081d8162000435565b82525050565b60006020820190506200083a600083018462000812565b92915050565b612f0d80620008506000396000f3fe6080604052600436106101d15760003560e01c806359533d6c116100f757806391ba317a11610095578063c87b56dd11610064578063c87b56dd1461061a578063e580b2b014610657578063e985e9c514610682578063f2fde38b146106bf576101d8565b806391ba317a1461057257806395d89b411461059d578063a22cb465146105c8578063b88d4fde146105f1576101d8565b806370a08231116100d157806370a08231146104c8578063714cff5614610505578063715018a6146105305780638da5cb5b14610547576101d8565b806359533d6c146104565780635c975abb146104605780636352211e1461048b576101d8565b80631249c58b1161016f5780632f745c591161013e5780632f745c591461039c5780633ccfd60b146103d957806342842e0e146103f05780634f6ccce714610419576101d8565b80631249c58b1461031357806318160ddd1461031d578063235b6ea11461034857806323b872dd14610373576101d8565b806304c98b2b116101ab57806304c98b2b1461026b57806306fdde0314610282578063081812fc146102ad578063095ea7b3146102ea576101d8565b806301ffc9a7146101da57806302329a291461021757806304549d6f14610240576101d8565b366101d857005b005b3480156101e657600080fd5b5061020160048036038101906101fc9190612541565b6106e8565b60405161020e9190612589565b60405180910390f35b34801561022357600080fd5b5061023e600480360381019061023991906125d0565b610762565b005b34801561024c57600080fd5b50610255610787565b6040516102629190612589565b60405180910390f35b34801561027757600080fd5b5061028061079a565b005b34801561028e57600080fd5b506102976107d3565b6040516102a4919061268d565b60405180910390f35b3480156102b957600080fd5b506102d460048036038101906102cf91906126e5565b610865565b6040516102e19190612753565b60405180910390f35b3480156102f657600080fd5b50610311600480360381019061030c919061279a565b610881565b005b61031b610897565b005b34801561032957600080fd5b50610332610954565b60405161033f91906127e9565b60405180910390f35b34801561035457600080fd5b5061035d610961565b60405161036a91906127e9565b60405180910390f35b34801561037f57600080fd5b5061039a60048036038101906103959190612804565b610967565b005b3480156103a857600080fd5b506103c360048036038101906103be919061279a565b610a69565b6040516103d091906127e9565b60405180910390f35b3480156103e557600080fd5b506103ee610b12565b005b3480156103fc57600080fd5b5061041760048036038101906104129190612804565b610b9a565b005b34801561042557600080fd5b50610440600480360381019061043b91906126e5565b610bba565b60405161044d91906127e9565b60405180910390f35b61045e610c30565b005b34801561046c57600080fd5b50610475610d91565b6040516104829190612589565b60405180910390f35b34801561049757600080fd5b506104b260048036038101906104ad91906126e5565b610da4565b6040516104bf9190612753565b60405180910390f35b3480156104d457600080fd5b506104ef60048036038101906104ea9190612857565b610db6565b6040516104fc91906127e9565b60405180910390f35b34801561051157600080fd5b5061051a610e70565b60405161052791906127e9565b60405180910390f35b34801561053c57600080fd5b50610545610e76565b005b34801561055357600080fd5b5061055c610e8a565b6040516105699190612753565b60405180910390f35b34801561057e57600080fd5b50610587610eb4565b60405161059491906127e9565b60405180910390f35b3480156105a957600080fd5b506105b2610eba565b6040516105bf919061268d565b60405180910390f35b3480156105d457600080fd5b506105ef60048036038101906105ea9190612884565b610f4c565b005b3480156105fd57600080fd5b50610618600480360381019061061391906129f9565b610f62565b005b34801561062657600080fd5b50610641600480360381019061063c91906126e5565b610f7f565b60405161064e919061268d565b60405180910390f35b34801561066357600080fd5b5061066c610fe8565b60405161067991906127e9565b60405180910390f35b34801561068e57600080fd5b506106a960048036038101906106a49190612a7c565b610fee565b6040516106b69190612589565b60405180910390f35b3480156106cb57600080fd5b506106e660048036038101906106e19190612857565b611082565b005b60007f780e9d63000000000000000000000000000000000000000000000000000000007bffffffffffffffffffffffffffffffffffffffffffffffffffffffff1916827bffffffffffffffffffffffffffffffffffffffffffffffffffffffff1916148061075b575061075a82611108565b5b9050919050565b61076a6111ea565b80600d60006101000a81548160ff02191690831515021790555050565b601060149054906101000a900460ff1681565b6107a26111ea565b6001601060146101000a81548160ff02191690831515021790555061012c426107cb9190612aeb565b601181905550565b6060600080546107e290612b4e565b80601f016020809104026020016040519081016040528092919081815260200182805461080e90612b4e565b801561085b5780601f106108305761010080835404028352916020019161085b565b820191906000526020600020905b81548152906001019060200180831161083e57829003601f168201915b5050505050905090565b600061087082611271565b5061087a826112f9565b9050919050565b610893828261088e611336565b61133e565b5050565b600d60009054906101000a900460ff166108e6576040517f08c379a00000000000000000000000000000000000000000000000000000000081526004016108dd90612bcb565b60405180910390fd5b601060149054906101000a900460ff16801561090457506011544210155b61090d57600080fd5b600e54600f541061091d57600080fd5b600c5434101561092c57600080fd5b6001600f600082825461093f9190612aeb565b9250508190555061095233600f54611350565b565b6000600880549050905090565b600c5481565b600073ffffffffffffffffffffffffffffffffffffffff168273ffffffffffffffffffffffffffffffffffffffff16036109d95760006040517f64a0ae920000000000000000000000000000000000000000000000000000000081526004016109d09190612753565b60405180910390fd5b60006109ed83836109e8611336565b61136e565b90508373ffffffffffffffffffffffffffffffffffffffff168173ffffffffffffffffffffffffffffffffffffffff1614610a63578382826040517f64283d7b000000000000000000000000000000000000000000000000000000008152600401610a5a93929190612beb565b60405180910390fd5b50505050565b6000610a7483610db6565b8210610ab95782826040517fa57d13dc000000000000000000000000000000000000000000000000000000008152600401610ab0929190612c22565b60405180910390fd5b600660008473ffffffffffffffffffffffffffffffffffffffff1673ffffffffffffffffffffffffffffffffffffffff168152602001908152602001600020600083815260200190815260200160002054905092915050565b610b1a6111ea565b6000610b24610e8a565b73ffffffffffffffffffffffffffffffffffffffff1647604051610b4790612c7c565b60006040518083038185875af1925050503d8060008114610b84576040519150601f19603f3d011682016040523d82523d6000602084013e610b89565b606091505b5050905080610b9757600080fd5b50565b610bb583838360405180602001604052806000815250610f62565b505050565b6000610bc4610954565b8210610c0a576000826040517fa57d13dc000000000000000000000000000000000000000000000000000000008152600401610c01929190612c22565b60405180910390fd5b60088281548110610c1e57610c1d612c91565b5b90600052602060002001549050919050565b600d60009054906101000a900460ff16610c7f576040517f08c379a0000000000000000000000000000000000000000000000000000000008152600401610c7690612bcb565b60405180910390fd5b601060149054906101000a900460ff168015610c9c575060115442105b610ca557600080fd5b601060009054906101000a900473ffffffffffffffffffffffffffffffffffffffff1673ffffffffffffffffffffffffffffffffffffffff16637b9417c8336040518263ffffffff1660e01b8152600401610d009190612753565b602060405180830381865afa158015610d1d573d6000803e3d6000fd5b505050506040513d601f19601f82011682018060405250810190610d419190612cd5565b610d4a57600080fd5b600e54600f5410610d5a57600080fd5b600c54341015610d6957600080fd5b6001600f6000828254610d7c9190612aeb565b92505081905550610d8f33600f54611350565b565b600d60009054906101000a900460ff1681565b6000610daf82611271565b9050919050565b60008073ffffffffffffffffffffffffffffffffffffffff168273ffffffffffffffffffffffffffffffffffffffff1603610e295760006040517f89c62b64000000000000000000000000000000000000000000000000000000008152600401610e209190612753565b60405180910390fd5b600360008373ffffffffffffffffffffffffffffffffffffffff1673ffffffffffffffffffffffffffffffffffffffff168152602001908152602001600020549050919050565b600f5481565b610e7e6111ea565b610e88600061148b565b565b6000600a60009054906101000a900473ffffffffffffffffffffffffffffffffffffffff16905090565b600e5481565b606060018054610ec990612b4e565b80601f0160208091040260200160405190810160405280929190818152602001828054610ef590612b4e565b8015610f425780601f10610f1757610100808354040283529160200191610f42565b820191906000526020600020905b815481529060010190602001808311610f2557829003601f168201915b5050505050905090565b610f5e610f57611336565b8383611551565b5050565b610f6d848484610967565b610f79848484846116c0565b50505050565b6060610f8a82611271565b506000610f95611877565b90506000815111610fb55760405180602001604052806000815250610fe0565b80610fbf8461188e565b604051602001610fd0929190612d3e565b6040516020818303038152906040525b915050919050565b60115481565b6000600560008473ffffffffffffffffffffffffffffffffffffffff1673ffffffffffffffffffffffffffffffffffffffff16815260200190815260200160002060008373ffffffffffffffffffffffffffffffffffffffff1673ffffffffffffffffffffffffffffffffffffffff16815260200190815260200160002060009054906101000a900460ff16905092915050565b61108a6111ea565b600073ffffffffffffffffffffffffffffffffffffffff168173ffffffffffffffffffffffffffffffffffffffff16036110fc5760006040517f1e4fbdf70000000000000000000000000000000000000000000000000000000081526004016110f39190612753565b60405180910390fd5b6111058161148b565b50565b60007f80ac58cd000000000000000000000000000000000000000000000000000000007bffffffffffffffffffffffffffffffffffffffffffffffffffffffff1916827bffffffffffffffffffffffffffffffffffffffffffffffffffffffff191614806111d357507f5b5e139f000000000000000000000000000000000000000000000000000000007bffffffffffffffffffffffffffffffffffffffffffffffffffffffff1916827bffffffffffffffffffffffffffffffffffffffffffffffffffffffff1916145b806111e357506111e28261195c565b5b9050919050565b6111f2611336565b73ffffffffffffffffffffffffffffffffffffffff16611210610e8a565b73ffffffffffffffffffffffffffffffffffffffff161461126f57611233611336565b6040517f118cdaa70000000000000000000000000000000000000000000000000000000081526004016112669190612753565b60405180910390fd5b565b60008061127d836119c6565b9050600073ffffffffffffffffffffffffffffffffffffffff168173ffffffffffffffffffffffffffffffffffffffff16036112f057826040517f7e2732890000000000000000000000000000000000000000000000000000000081526004016112e791906127e9565b60405180910390fd5b80915050919050565b60006004600083815260200190815260200160002060009054906101000a900473ffffffffffffffffffffffffffffffffffffffff169050919050565b600033905090565b61134b8383836001611a03565b505050565b61136a828260405180602001604052806000815250611bc8565b5050565b60008061137c858585611be4565b9050600073ffffffffffffffffffffffffffffffffffffffff168173ffffffffffffffffffffffffffffffffffffffff16036113c0576113bb84611dfe565b6113ff565b8473ffffffffffffffffffffffffffffffffffffffff168173ffffffffffffffffffffffffffffffffffffffff16146113fe576113fd8185611e47565b5b5b600073ffffffffffffffffffffffffffffffffffffffff168573ffffffffffffffffffffffffffffffffffffffff16036114415761143c84611fa8565b611480565b8473ffffffffffffffffffffffffffffffffffffffff168173ffffffffffffffffffffffffffffffffffffffff161461147f5761147e8585612079565b5b5b809150509392505050565b6000600a60009054906101000a900473ffffffffffffffffffffffffffffffffffffffff16905081600a60006101000a81548173ffffffffffffffffffffffffffffffffffffffff021916908373ffffffffffffffffffffffffffffffffffffffff1602179055508173ffffffffffffffffffffffffffffffffffffffff168173ffffffffffffffffffffffffffffffffffffffff167f8be0079c531659141344cd1fd0a4f28419497f9722a3daafe3b4186f6b6457e060405160405180910390a35050565b600073ffffffffffffffffffffffffffffffffffffffff168273ffffffffffffffffffffffffffffffffffffffff16036115c257816040517f5b08ba180000000000000000000000000000000000000000000000000000000081526004016115b99190612753565b60405180910390fd5b80600560008573ffffffffffffffffffffffffffffffffffffffff1673ffffffffffffffffffffffffffffffffffffffff16815260200190815260200160002060008473ffffffffffffffffffffffffffffffffffffffff1673ffffffffffffffffffffffffffffffffffffffff16815260200190815260200160002060006101000a81548160ff0219169083151502179055508173ffffffffffffffffffffffffffffffffffffffff168373ffffffffffffffffffffffffffffffffffffffff167f17307eab39ab6107e8899845ad3d59bd9653f200f220920489ca2b5937696c31836040516116b39190612589565b60405180910390a3505050565b60008373ffffffffffffffffffffffffffffffffffffffff163b1115611871578273ffffffffffffffffffffffffffffffffffffffff1663150b7a02611704611336565b8685856040518563ffffffff1660e01b81526004016117269493929190612db7565b6020604051808303816000875af192505050801561176257506040513d601f19601f8201168201806040525081019061175f9190612e18565b60015b6117e6573d8060008114611792576040519150601f19603f3d011682016040523d82523d6000602084013e611797565b606091505b5060008151036117de57836040517f64a0ae920000000000000000000000000000000000000000000000000000000081526004016117d59190612753565b60405180910390fd5b805181602001fd5b63150b7a0260e01b7bffffffffffffffffffffffffffffffffffffffffffffffffffffffff1916817bffffffffffffffffffffffffffffffffffffffffffffffffffffffff19161461186f57836040517f64a0ae920000000000000000000000000000000000000000000000000000000081526004016118669190612753565b60405180910390fd5b505b50505050565b606060405180602001604052806000815250905090565b60606000600161189d84612104565b01905060008167ffffffffffffffff8111156118bc576118bb6128ce565b5b6040519080825280601f01601f1916602001820160405280156118ee5781602001600182028036833780820191505090505b509050600082602001820190505b600115611951578080600190039150507f3031323334353637383961626364656600000000000000000000000000000000600a86061a8153600a858161194557611944612e45565b5b049450600085036118fc575b819350505050919050565b60007f01ffc9a7000000000000000000000000000000000000000000000000000000007bffffffffffffffffffffffffffffffffffffffffffffffffffffffff1916827bffffffffffffffffffffffffffffffffffffffffffffffffffffffff1916149050919050565b60006002600083815260200190815260200160002060009054906101000a900473ffffffffffffffffffffffffffffffffffffffff169050919050565b8080611a3c5750600073ffffffffffffffffffffffffffffffffffffffff168273ffffffffffffffffffffffffffffffffffffffff1614155b15611b70576000611a4c84611271565b9050600073ffffffffffffffffffffffffffffffffffffffff168373ffffffffffffffffffffffffffffffffffffffff1614158015611ab757508273ffffffffffffffffffffffffffffffffffffffff168173ffffffffffffffffffffffffffffffffffffffff1614155b8015611aca5750611ac88184610fee565b155b15611b0c57826040517fa9fbf51f000000000000000000000000000000000000000000000000000000008152600401611b039190612753565b60405180910390fd5b8115611b6e57838573ffffffffffffffffffffffffffffffffffffffff168273ffffffffffffffffffffffffffffffffffffffff167f8c5be1e5ebec7d5bd14f71427d1e84f3dd0314c0f7b2291e5b200ac8c7c3b92560405160405180910390a45b505b836004600085815260200190815260200160002060006101000a81548173ffffffffffffffffffffffffffffffffffffffff021916908373ffffffffffffffffffffffffffffffffffffffff16021790555050505050565b611bd28383612257565b611bdf60008484846116c0565b505050565b600080611bf0846119c6565b9050600073ffffffffffffffffffffffffffffffffffffffff168373ffffffffffffffffffffffffffffffffffffffff1614611c3257611c31818486612350565b5b600073ffffffffffffffffffffffffffffffffffffffff168173ffffffffffffffffffffffffffffffffffffffff1614611cc357611c74600085600080611a03565b6001600360008373ffffffffffffffffffffffffffffffffffffffff1673ffffffffffffffffffffffffffffffffffffffff168152602001908152602001600020600082825403925050819055505b600073ffffffffffffffffffffffffffffffffffffffff168573ffffffffffffffffffffffffffffffffffffffff1614611d46576001600360008773ffffffffffffffffffffffffffffffffffffffff1673ffffffffffffffffffffffffffffffffffffffff168152602001908152602001600020600082825401925050819055505b846002600086815260200190815260200160002060006101000a81548173ffffffffffffffffffffffffffffffffffffffff021916908373ffffffffffffffffffffffffffffffffffffffff160217905550838573ffffffffffffffffffffffffffffffffffffffff168273ffffffffffffffffffffffffffffffffffffffff167fddf252ad1be2c89b69c2b068fc378daa952ba7f163c4a11628f55a4df523b3ef60405160405180910390a4809150509392505050565b6008805490506009600083815260200190815260200160002081905550600881908060018154018082558091505060019003906000526020600020016000909190919091505550565b6000611e5283610db6565b9050600060076000848152602001908152602001600020549050818114611f37576000600660008673ffffffffffffffffffffffffffffffffffffffff1673ffffffffffffffffffffffffffffffffffffffff168152602001908152602001600020600084815260200190815260200160002054905080600660008773ffffffffffffffffffffffffffffffffffffffff1673ffffffffffffffffffffffffffffffffffffffff168152602001908152602001600020600084815260200190815260200160002081905550816007600083815260200190815260200160002081905550505b6007600084815260200190815260200160002060009055600660008573ffffffffffffffffffffffffffffffffffffffff1673ffffffffffffffffffffffffffffffffffffffff16815260200190815260200160002060008381526020019081526020016000206000905550505050565b60006001600880549050611fbc9190612e74565b9050600060096000848152602001908152602001600020549050600060088381548110611fec57611feb612c91565b5b90600052602060002001549050806008838154811061200e5761200d612c91565b5b90600052602060002001819055508160096000838152602001908152602001600020819055506009600085815260200190815260200160002060009055600880548061205d5761205c612ea8565b5b6001900381819060005260206000200160009055905550505050565b6000600161208684610db6565b6120909190612e74565b905081600660008573ffffffffffffffffffffffffffffffffffffffff1673ffffffffffffffffffffffffffffffffffffffff168152602001908152602001600020600083815260200190815260200160002081905550806007600084815260200190815260200160002081905550505050565b600080600090507a184f03e93ff9f4daa797ed6e38ed64bf6a1f0100000000000000008310612162577a184f03e93ff9f4daa797ed6e38ed64bf6a1f010000000000000000838161215857612157612e45565b5b0492506040810190505b6d04ee2d6d415b85acef8100000000831061219f576d04ee2d6d415b85acef8100000000838161219557612194612e45565b5b0492506020810190505b662386f26fc1000083106121ce57662386f26fc1000083816121c4576121c3612e45565b5b0492506010810190505b6305f5e10083106121f7576305f5e10083816121ed576121ec612e45565b5b0492506008810190505b612710831061221c57612710838161221257612211612e45565b5b0492506004810190505b6064831061223f576064838161223557612234612e45565b5b0492506002810190505b600a831061224e576001810190505b80915050919050565b600073ffffffffffffffffffffffffffffffffffffffff168273ffffffffffffffffffffffffffffffffffffffff16036122c95760006040517f64a0ae920000000000000000000000000000000000000000000000000000000081526004016122c09190612753565b60405180910390fd5b60006122d78383600061136e565b9050600073ffffffffffffffffffffffffffffffffffffffff168173ffffffffffffffffffffffffffffffffffffffff161461234b5760006040517f73c6ac6e0000000000000000000000000000000000000000000000000000000081526004016123429190612753565b60405180910390fd5b505050565b61235b838383612414565b61240f57600073ffffffffffffffffffffffffffffffffffffffff168373ffffffffffffffffffffffffffffffffffffffff16036123d057806040517f7e2732890000000000000000000000000000000000000000000000000000000081526004016123c791906127e9565b60405180910390fd5b81816040517f177e802f000000000000000000000000000000000000000000000000000000008152600401612406929190612c22565b60405180910390fd5b505050565b60008073ffffffffffffffffffffffffffffffffffffffff168373ffffffffffffffffffffffffffffffffffffffff16141580156124cc57508273ffffffffffffffffffffffffffffffffffffffff168473ffffffffffffffffffffffffffffffffffffffff16148061248d575061248c8484610fee565b5b806124cb57508273ffffffffffffffffffffffffffffffffffffffff166124b3836112f9565b73ffffffffffffffffffffffffffffffffffffffff16145b5b90509392505050565b6000604051905090565b600080fd5b600080fd5b60007fffffffff0000000000000000000000000000000000000000000000000000000082169050919050565b61251e816124e9565b811461252957600080fd5b50565b60008135905061253b81612515565b92915050565b600060208284031215612557576125566124df565b5b60006125658482850161252c565b91505092915050565b60008115159050919050565b6125838161256e565b82525050565b600060208201905061259e600083018461257a565b92915050565b6125ad8161256e565b81146125b857600080fd5b50565b6000813590506125ca816125a4565b92915050565b6000602082840312156125e6576125e56124df565b5b60006125f4848285016125bb565b91505092915050565b600081519050919050565b600082825260208201905092915050565b60005b8381101561263757808201518184015260208101905061261c565b60008484015250505050565b6000601f19601f8301169050919050565b600061265f826125fd565b6126698185612608565b9350612679818560208601612619565b61268281612643565b840191505092915050565b600060208201905081810360008301526126a78184612654565b905092915050565b6000819050919050565b6126c2816126af565b81146126cd57600080fd5b50565b6000813590506126df816126b9565b92915050565b6000602082840312156126fb576126fa6124df565b5b6000612709848285016126d0565b91505092915050565b600073ffffffffffffffffffffffffffffffffffffffff82169050919050565b600061273d82612712565b9050919050565b61274d81612732565b82525050565b60006020820190506127686000830184612744565b92915050565b61277781612732565b811461278257600080fd5b50565b6000813590506127948161276e565b92915050565b600080604083850312156127b1576127b06124df565b5b60006127bf85828601612785565b92505060206127d0858286016126d0565b9150509250929050565b6127e3816126af565b82525050565b60006020820190506127fe60008301846127da565b92915050565b60008060006060848603121561281d5761281c6124df565b5b600061282b86828701612785565b935050602061283c86828701612785565b925050604061284d868287016126d0565b9150509250925092565b60006020828403121561286d5761286c6124df565b5b600061287b84828501612785565b91505092915050565b6000806040838503121561289b5761289a6124df565b5b60006128a985828601612785565b92505060206128ba858286016125bb565b9150509250929050565b600080fd5b600080fd5b7f4e487b7100000000000000000000000000000000000000000000000000000000600052604160045260246000fd5b61290682612643565b810181811067ffffffffffffffff82111715612925576129246128ce565b5b80604052505050565b60006129386124d5565b905061294482826128fd565b919050565b600067ffffffffffffffff821115612964576129636128ce565b5b61296d82612643565b9050602081019050919050565b82818337600083830152505050565b600061299c61299784612949565b61292e565b9050828152602081018484840111156129b8576129b76128c9565b5b6129c384828561297a565b509392505050565b600082601f8301126129e0576129df6128c4565b5b81356129f0848260208601612989565b91505092915050565b60008060008060808587031215612a1357612a126124df565b5b6000612a2187828801612785565b9450506020612a3287828801612785565b9350506040612a43878288016126d0565b925050606085013567ffffffffffffffff811115612a6457612a636124e4565b5b612a70878288016129cb565b91505092959194509250565b60008060408385031215612a9357612a926124df565b5b6000612aa185828601612785565b9250506020612ab285828601612785565b9150509250929050565b7f4e487b7100000000000000000000000000000000000000000000000000000000600052601160045260246000fd5b6000612af6826126af565b9150612b01836126af565b9250828201905080821115612b1957612b18612abc565b5b92915050565b7f4e487b7100000000000000000000000000000000000000000000000000000000600052602260045260246000fd5b60006002820490506001821680612b6657607f821691505b602082108103612b7957612b78612b1f565b5b50919050565b7f636f6e74726163742069732063757272656e746c792070617573656400000000600082015250565b6000612bb5601c83612608565b9150612bc082612b7f565b602082019050919050565b60006020820190508181036000830152612be481612ba8565b9050919050565b6000606082019050612c006000830186612744565b612c0d60208301856127da565b612c1a6040830184612744565b949350505050565b6000604082019050612c376000830185612744565b612c4460208301846127da565b9392505050565b600081905092915050565b50565b6000612c66600083612c4b565b9150612c7182612c56565b600082019050919050565b6000612c8782612c59565b9150819050919050565b7f4e487b7100000000000000000000000000000000000000000000000000000000600052603260045260246000fd5b600081519050612ccf816125a4565b92915050565b600060208284031215612ceb57612cea6124df565b5b6000612cf984828501612cc0565b91505092915050565b600081905092915050565b6000612d18826125fd565b612d228185612d02565b9350612d32818560208601612619565b80840191505092915050565b6000612d4a8285612d0d565b9150612d568284612d0d565b91508190509392505050565b600081519050919050565b600082825260208201905092915050565b6000612d8982612d62565b612d938185612d6d565b9350612da3818560208601612619565b612dac81612643565b840191505092915050565b6000608082019050612dcc6000830187612744565b612dd96020830186612744565b612de660408301856127da565b8181036060830152612df88184612d7e565b905095945050505050565b600081519050612e1281612515565b92915050565b600060208284031215612e2e57612e2d6124df565b5b6000612e3c84828501612e03565b91505092915050565b7f4e487b7100000000000000000000000000000000000000000000000000000000600052601260045260246000fd5b6000612e7f826126af565b9150612e8a836126af565b9250828203905081811115612ea257612ea1612abc565b5b92915050565b7f4e487b7100000000000000000000000000000000000000000000000000000000600052603160045260246000fdfea26469706673582212206ebea09d5ade7b49575a94876712297adfadf91f31b8b461d4c6cf5baec8bb0864736f6c63430008180033",
  "linkReferences": {},
  "deployedLinkReferences": {}
}