{
  "_format": "hh-sol-artifact-1",
  "contractName": "Whitelist",
  "sourceName": "contracts/Whitelist.sol",
  "abi": [
    {
      "inputs": [
        {
          "internalType": "uint8",
          "name": "_maxAddresses",
          "type": "uint8"
        }
      ],
      "stateMutability": "nonpayable",
      "type": "constructor"
    },
    {
      "inputs": [],
      "name": "addAddressToWhitelist",
      "outputs": [],
      "stateMutability": "nonpayable",
      "type": "function"
    },
    {
      "inputs": [],
      "name": "addressesWhitelisted",
      "outputs": [
        {
          "internalType": "uint8",
          "name": "",
          "type": "uint8"
        }
      ],
      "stateMutability": "view",
      "type": "function"
    },
    {
      "inputs": [],
      "name": "maxAddresses",
      "outputs": [
        {
          "internalType": "uint8",
          "name": "",
          "type": "uint8"
        }
      ],
      "stateMutability": "view",
      "type": "function"
    }
  ],
  "bytecode": "0x608060405234801561001057600080fd5b506040516104dd3803806104dd83398181016040528101906100329190610090565b806000806101000a81548160ff021916908360ff160217905550506100bd565b600080fd5b600060ff82169050919050565b61006d81610057565b811461007857600080fd5b50565b60008151905061008a81610064565b92915050565b6000602082840312156100a6576100a5610052565b5b60006100b48482850161007b565b91505092915050565b610411806100cc6000396000f3fe608060405234801561001057600080fd5b50600436106100415760003560e01c80635cbd3a7e146100465780638e7314d91461006457806393e5365f1461006e575b600080fd5b61004e61008c565b60405161005b919061024d565b60405180910390f35b61006c61009f565b005b610076610220565b604051610083919061024d565b60405180910390f35b600060019054906101000a900460ff1681565b600160003373ffffffffffffffffffffffffffffffffffffffff1673ffffffffffffffffffffffffffffffffffffffff16815260200190815260200160002060009054906101000a900460ff161561012c576040517f08c379a0000000000000000000000000000000000000000000000000000000008152600401610123906102c5565b60405180910390fd5b60008054906101000a900460ff1660ff16600060019054906101000a900460ff1660ff1610610190576040517f08c379a000000000000000000000000000000000000000000000000000000000815260040161018790610357565b60405180910390fd5b60018060003373ffffffffffffffffffffffffffffffffffffffff1673ffffffffffffffffffffffffffffffffffffffff16815260200190815260200160002060006101000a81548160ff0219169083151502179055506001600060018282829054906101000a900460ff1661020691906103a6565b92506101000a81548160ff021916908360ff160217905550565b60008054906101000a900460ff1681565b600060ff82169050919050565b61024781610231565b82525050565b6000602082019050610262600083018461023e565b92915050565b600082825260208201905092915050565b7f73656e64657220616c72656164792077686974656c6973746564000000000000600082015250565b60006102af601a83610268565b91506102ba82610279565b602082019050919050565b600060208201905081810360008301526102de816102a2565b9050919050565b7f6d6f7265206164647265737365732063616e6e6f742062652077686974656c6960008201527f7374656400000000000000000000000000000000000000000000000000000000602082015250565b6000610341602483610268565b915061034c826102e5565b604082019050919050565b6000602082019050818103600083015261037081610334565b9050919050565b7f4e487b7100000000000000000000000000000000000000000000000000000000600052601160045260246000fd5b60006103b182610231565b91506103bc83610231565b9250828201905060ff8111156103d5576103d4610377565b5b9291505056fea2646970667358221220132d68d01d4041e36005837b4282642f41d4a0d4175e0699f5eb528c0051872964736f6c63430008180033",
  "linkReferences": {},
  "deployedLinkReferences": {}
}